{
  "_format": "hh3-artifact-1",
  "contractName": "InsuranceContract",
  "sourceName": "contracts/InsuranceContract.sol",
  "abi": [
    {
      "inputs": [],
      "name": "ReentrancyGuardReentrantCall",
      "type": "error"
    },
    {
      "anonymous": false,
      "inputs": [
        {
          "indexed": true,
          "internalType": "uint256",
          "name": "offerId",
          "type": "uint256"
        },
        {
          "indexed": true,
          "internalType": "address",
          "name": "provider",
          "type": "address"
        },
        {
          "indexed": false,
          "internalType": "uint256",
          "name": "amount",
          "type": "uint256"
        }
      ],
      "name": "CoverageFunded",
      "type": "event"
    },
    {
      "anonymous": false,
      "inputs": [
        {
          "indexed": true,
          "internalType": "uint256",
          "name": "offerId",
          "type": "uint256"
        },
        {
          "indexed": true,
          "internalType": "uint256",
          "name": "quoteRequestId",
          "type": "uint256"
        },
        {
          "indexed": true,
          "internalType": "address",
          "name": "requester",
          "type": "address"
        }
      ],
      "name": "OfferAccepted",
      "type": "event"
    },
    {
      "anonymous": false,
      "inputs": [
        {
          "indexed": true,
          "internalType": "uint256",
          "name": "offerId",
          "type": "uint256"
        },
        {
          "indexed": true,
          "internalType": "uint256",
          "name": "quoteRequestId",
          "type": "uint256"
        },
        {
          "indexed": true,
          "internalType": "address",
          "name": "provider",
          "type": "address"
        },
        {
          "indexed": false,
          "internalType": "uint256",
          "name": "premium",
          "type": "uint256"
        },
        {
          "indexed": false,
          "internalType": "uint256",
          "name": "coverageAmount",
          "type": "uint256"
        },
        {
          "indexed": false,
          "internalType": "uint256",
          "name": "validUntil",
          "type": "uint256"
        }
      ],
      "name": "OfferMade",
      "type": "event"
    },
    {
      "anonymous": false,
      "inputs": [
        {
          "indexed": true,
          "internalType": "uint256",
          "name": "offerId",
          "type": "uint256"
        },
        {
          "indexed": true,
          "internalType": "address",
          "name": "requester",
          "type": "address"
        },
        {
          "indexed": false,
          "internalType": "uint256",
          "name": "payoutAmount",
          "type": "uint256"
        }
      ],
      "name": "PayoutMade",
      "type": "event"
    },
    {
      "anonymous": false,
      "inputs": [
        {
          "indexed": true,
          "internalType": "uint256",
          "name": "offerId",
          "type": "uint256"
        },
        {
          "indexed": true,
          "internalType": "address",
          "name": "requester",
          "type": "address"
        },
        {
          "indexed": false,
          "internalType": "uint256",
          "name": "amount",
          "type": "uint256"
        }
      ],
      "name": "PremiumPaid",
      "type": "event"
    },
    {
      "anonymous": false,
      "inputs": [
        {
          "indexed": true,
          "internalType": "uint256",
          "name": "offerId",
          "type": "uint256"
        },
        {
          "indexed": true,
          "internalType": "address",
          "name": "provider",
          "type": "address"
        },
        {
          "indexed": false,
          "internalType": "uint256",
          "name": "amount",
          "type": "uint256"
        }
      ],
      "name": "ProviderRefunded",
      "type": "event"
    },
    {
      "anonymous": false,
      "inputs": [
        {
          "indexed": true,
          "internalType": "uint256",
          "name": "quoteRequestId",
          "type": "uint256"
        },
        {
          "indexed": true,
          "internalType": "address",
          "name": "requester",
          "type": "address"
        }
      ],
      "name": "QuoteRequested",
      "type": "event"
    },
    {
      "inputs": [
        {
          "internalType": "uint256",
          "name": "offerId",
          "type": "uint256"
        }
      ],
      "name": "accept",
      "outputs": [],
      "stateMutability": "payable",
      "type": "function"
    },
    {
      "inputs": [
        {
          "internalType": "uint256",
          "name": "offerId",
          "type": "uint256"
        }
      ],
      "name": "claimPayout",
      "outputs": [],
      "stateMutability": "nonpayable",
      "type": "function"
    },
    {
      "inputs": [
        {
          "internalType": "uint256",
          "name": "offerId",
          "type": "uint256"
        }
      ],
      "name": "fundCoverage",
      "outputs": [],
      "stateMutability": "payable",
      "type": "function"
    },
    {
      "inputs": [
        {
          "internalType": "address",
          "name": "provider",
          "type": "address"
        }
      ],
      "name": "getProviderFunds",
      "outputs": [
        {
          "internalType": "uint256",
          "name": "",
          "type": "uint256"
        }
      ],
      "stateMutability": "view",
      "type": "function"
    },
    {
      "inputs": [
        {
          "internalType": "string",
          "name": "metadata",
          "type": "string"
        }
      ],
      "name": "getQuote",
      "outputs": [
        {
          "internalType": "uint256",
          "name": "quoteRequestId",
          "type": "uint256"
        }
      ],
      "stateMutability": "nonpayable",
      "type": "function"
    },
    {
      "inputs": [
        {
          "internalType": "uint256",
          "name": "quoteRequestId",
          "type": "uint256"
        },
        {
          "internalType": "uint256",
          "name": "premium",
          "type": "uint256"
        },
        {
          "internalType": "uint256",
          "name": "coverageAmount",
          "type": "uint256"
        },
        {
          "internalType": "uint256",
          "name": "validUntil",
          "type": "uint256"
        }
      ],
      "name": "offer",
      "outputs": [
        {
          "internalType": "uint256",
          "name": "offerId",
          "type": "uint256"
        }
      ],
      "stateMutability": "nonpayable",
      "type": "function"
    },
    {
      "inputs": [
        {
          "internalType": "uint256",
          "name": "",
          "type": "uint256"
        }
      ],
      "name": "offers",
      "outputs": [
        {
          "internalType": "uint256",
          "name": "quoteRequestId",
          "type": "uint256"
        },
        {
          "internalType": "address",
          "name": "provider",
          "type": "address"
        },
        {
          "internalType": "uint256",
          "name": "premium",
          "type": "uint256"
        },
        {
          "internalType": "uint256",
          "name": "coverageAmount",
          "type": "uint256"
        },
        {
          "internalType": "uint256",
          "name": "validUntil",
          "type": "uint256"
        },
        {
          "internalType": "bool",
          "name": "accepted",
          "type": "bool"
        },
        {
          "internalType": "bool",
          "name": "premiumPaid",
          "type": "bool"
        },
        {
          "internalType": "bool",
          "name": "coverageFunded",
          "type": "bool"
        },
        {
          "internalType": "bool",
          "name": "payoutClaimed",
          "type": "bool"
        }
      ],
      "stateMutability": "view",
      "type": "function"
    },
    {
      "inputs": [
        {
          "internalType": "address",
          "name": "",
          "type": "address"
        }
      ],
      "name": "providerFunds",
      "outputs": [
        {
          "internalType": "uint256",
          "name": "",
          "type": "uint256"
        }
      ],
      "stateMutability": "view",
      "type": "function"
    },
    {
      "inputs": [
        {
          "internalType": "uint256",
          "name": "",
          "type": "uint256"
        }
      ],
      "name": "quoteRequests",
      "outputs": [
        {
          "internalType": "address",
          "name": "requester",
          "type": "address"
        },
        {
          "internalType": "uint256",
          "name": "timestamp",
          "type": "uint256"
        },
        {
          "internalType": "string",
          "name": "metadata",
          "type": "string"
        },
        {
          "internalType": "bool",
          "name": "fulfilled",
          "type": "bool"
        }
      ],
      "stateMutability": "view",
      "type": "function"
    },
    {
      "inputs": [
        {
          "internalType": "uint256",
          "name": "offerId",
          "type": "uint256"
        }
      ],
      "name": "refundProvider",
      "outputs": [],
      "stateMutability": "nonpayable",
      "type": "function"
    }
  ],
  "bytecode": "0x608060405234801561000f575f80fd5b5060015f556115f6806100215f395ff3fe60806040526004361061008f575f3560e01c80638a69614e116100575780638a69614e1461013f5780638a72ea6a1461015e5780638e5f4a96146101d1578063bac3bf13146101f0578063fc3c466c1461021b575f80fd5b806319b05f49146100935780632ec0c987146100a857806339db75da146100e057806345c706a5146100f35780637c1e049c14610120575b5f80fd5b6100a66100a1366004611264565b61024f565b005b3480156100b3575f80fd5b506100c76100c2366004611264565b610538565b6040516100d7949392919061127b565b60405180910390f35b6100a66100ee366004611264565b610606565b3480156100fe575f80fd5b5061011261010d3660046112fa565b6107e1565b6040519081526020016100d7565b34801561012b575f80fd5b506100a661013a366004611264565b610900565b34801561014a575f80fd5b506100a6610159366004611264565b610c0e565b348015610169575f80fd5b5061017d610178366004611264565b610ef9565b60408051998a526001600160a01b0390981660208a01529688019590955260608701939093526080860191909152151560a0850152151560c0840152151560e08301521515610100820152610120016100d7565b3480156101dc575f80fd5b506101126101eb3660046113a5565b610f66565b3480156101fb575f80fd5b5061011261020a3660046113d4565b60036020525f908152604090205481565b348015610226575f80fd5b506101126102353660046113d4565b6001600160a01b03165f9081526003602052604090205490565b61025761123c565b60025481106102815760405162461bcd60e51b815260040161027890611401565b60405180910390fd5b5f600282815481106102955761029561142a565b905f5260205f20906006020190505f6001825f0154815481106102ba576102ba61142a565b5f918252602090912060049091020180549091506001600160a01b031633146103255760405162461bcd60e51b815260206004820152601960248201527f4f6e6c7920726571756573746572206d617920616363657074000000000000006044820152606401610278565b600582015460ff16156103735760405162461bcd60e51b815260206004820152601660248201527513d999995c88185b1c9958591e481858d8d95c1d195960521b6044820152606401610278565b81600401544211156103b75760405162461bcd60e51b815260206004820152600d60248201526c13d999995c88195e1c1a5c9959609a1b6044820152606401610278565b816002015434101561040b5760405162461bcd60e51b815260206004820152601c60248201527f496e73756666696369656e74207072656d69756d207061796d656e74000000006044820152606401610278565b600582015462010000900460ff166104715760405162461bcd60e51b815260206004820152602360248201527f436f766572616765206e6f74207965742066756e6465642062792070726f76696044820152623232b960e91b6064820152608401610278565b60058201805461ffff19166101011790556003818101805460ff191660019081179091558301546001600160a01b03165f9081526020919091526040812080543492906104bf908490611452565b9091555050604051348152339084907ffbf1458fbbddabb878de144276216e8ccda619cbac2d598e6ee37ff72173afb19060200160405180910390a3815460405133919085907fcb229072cbcd1d5410a56504f86a872c0eac1578c7eb4463ec190b52d3b669e2905f90a4505061053560015f55565b50565b60018181548110610547575f80fd5b5f9182526020909120600490910201805460018201546002830180546001600160a01b03909316945090929161057c9061146b565b80601f01602080910402602001604051908101604052809291908181526020018280546105a89061146b565b80156105f35780601f106105ca576101008083540402835291602001916105f3565b820191905f5260205f20905b8154815290600101906020018083116105d657829003601f168201915b5050506003909301549192505060ff1684565b61060e61123c565b600254811061062f5760405162461bcd60e51b815260040161027890611401565b5f600282815481106106435761064361142a565b5f918252602090912060069091020160018101549091506001600160a01b031633146106b15760405162461bcd60e51b815260206004820152601f60248201527f4f6e6c792070726f7669646572206d61792066756e6420636f766572616765006044820152606401610278565b600581015462010000900460ff161561070c5760405162461bcd60e51b815260206004820152601760248201527f436f76657261676520616c72656164792066756e6465640000000000000000006044820152606401610278565b806003015434101561076a5760405162461bcd60e51b815260206004820152602160248201527f496e73756666696369656e742066756e64696e6720666f7220636f76657261676044820152606560f81b6064820152608401610278565b60058101805462ff0000191662010000179055335f908152600360205260408120805434929061079b908490611452565b9091555050604051348152339083907fa843a28aa437030f23f761c1f1ecd3103e175f1b0b082974c7bd18d66ce427589060200160405180910390a35061053560015f55565b600180546040805160808101825233815242602082019081529181018581525f6060830181905284860186559490945280517fb10e2d527612073b26eecdfd717e6a320cf44b4afac2b0732d9fcbe2b7fa0cf66004850290810180546001600160a01b0319166001600160a01b0390931692909217825592517fb10e2d527612073b26eecdfd717e6a320cf44b4afac2b0732d9fcbe2b7fa0cf784015593519293909290917fb10e2d527612073b26eecdfd717e6a320cf44b4afac2b0732d9fcbe2b7fa0cf801906108b390826114f1565b50606091909101516003909101805460ff1916911515919091179055604051339082907f0c09f0a24112302ce5168bfeacb8a33ac52def2ffb4cd5c406c21974be51d28a905f90a3919050565b61090861123c565b60025481106109295760405162461bcd60e51b815260040161027890611401565b5f6002828154811061093d5761093d61142a565b5f91825260209091206001600690920201908101549091506001600160a01b031633146109ac5760405162461bcd60e51b815260206004820152601860248201527f4f6e6c792070726f7669646572206d617920726566756e6400000000000000006044820152606401610278565b600581015460ff1615610a0b5760405162461bcd60e51b815260206004820152602160248201527f4f66666572207761732061636365707465643b2063616e6e6f7420726566756e6044820152601960fa1b6064820152608401610278565b80600401544211610a565760405162461bcd60e51b815260206004820152601560248201527413d999995c881b9bdd081e595d08195e1c1a5c9959605a1b6044820152606401610278565b600581015462010000900460ff16610aa65760405162461bcd60e51b815260206004820152601360248201527210dbdd995c9859d9481b9bdd08199d5b991959606a1b6044820152606401610278565b60058101805462ff000019169055600380820154335f908152602092909252604090912054811115610b1a5760405162461bcd60e51b815260206004820152601c60248201527f496e73756666696369656e742066756e647320746f20726566756e64000000006044820152606401610278565b335f9081526003602052604081208054839290610b389084906115ad565b90915550506040515f90339083908381818185875af1925050503d805f8114610b7c576040519150601f19603f3d011682016040523d82523d5f602084013e610b81565b606091505b5050905080610bcb5760405162461bcd60e51b81526020600482015260166024820152751499599d5b99081d1c985b9cd9995c8819985a5b195960521b6044820152606401610278565b604051828152339085907f545ea3993213e14dba083c2da2bec37372db4acf6c0996ea64aa070008d145d89060200160405180910390a350505061053560015f55565b610c1661123c565b6002548110610c375760405162461bcd60e51b815260040161027890611401565b5f60028281548110610c4b57610c4b61142a565b905f5260205f20906006020190505f6001825f015481548110610c7057610c7061142a565b5f91825260209091206005840154600490920201915060ff16610cca5760405162461bcd60e51b815260206004820152601260248201527113d999995c881b9bdd081858d8d95c1d195960721b6044820152606401610278565b80546001600160a01b03163314610d235760405162461bcd60e51b815260206004820152601860248201527f4f6e6c7920726571756573746572206d617920636c61696d00000000000000006044820152606401610278565b60058201546301000000900460ff1615610d785760405162461bcd60e51b815260206004820152601660248201527514185e5bdd5d08185b1c9958591e4818db185a5b595960521b6044820152606401610278565b60058201805463ff0000001916630100000017905560038083015460018401546001600160a01b03165f908152602092909252604090912054811115610df75760405162461bcd60e51b8152602060048201526014602482015273141c9bdd9a59195c881d5b99195c999d5b99195960621b6044820152606401610278565b60018301546001600160a01b03165f9081526003602052604081208054839290610e229084906115ad565b90915550506040515f90339083908381818185875af1925050503d805f8114610e66576040519150601f19603f3d011682016040523d82523d5f602084013e610e6b565b606091505b5050905080610eb55760405162461bcd60e51b815260206004820152601660248201527514185e5bdd5d081d1c985b9cd9995c8819985a5b195960521b6044820152606401610278565b604051828152339086907f2dabd03ba7c7389d06d9492852b3e1a9859ba16c39730b20f5a473e71e5f5a489060200160405180910390a35050505061053560015f55565b60028181548110610f08575f80fd5b5f9182526020909120600690910201805460018201546002830154600384015460048501546005909501549395506001600160a01b0390921693909260ff808216916101008104821691620100008204811691630100000090041689565b6001545f908510610fb25760405162461bcd60e51b8152602060048201526016602482015275125b9d985b1a59081c5d5bdd1954995c5d595cdd125960521b6044820152606401610278565b5f60018681548110610fc657610fc661142a565b5f9182526020909120600490910201600381015490915060ff161561102d5760405162461bcd60e51b815260206004820152601760248201527f51756f746520616c72656164792066756c66696c6c65640000000000000000006044820152606401610278565b60028054604080516101208101825289815233602082018181528284018b8152606084018b8152608085018b81525f60a0870181815260c0880182815260e08901838152610100808b0185815260018e018f559d909452985160068c027f405787fa12a823e0f2b7631cc41b3ba8828b3321ca811111fa75cd3aa3bb5ace81019190915596517f405787fa12a823e0f2b7631cc41b3ba8828b3321ca811111fa75cd3aa3bb5acf880180546001600160a01b03929092166001600160a01b031990921691909117905594517f405787fa12a823e0f2b7631cc41b3ba8828b3321ca811111fa75cd3aa3bb5ad087015592517f405787fa12a823e0f2b7631cc41b3ba8828b3321ca811111fa75cd3aa3bb5ad186015590517f405787fa12a823e0f2b7631cc41b3ba8828b3321ca811111fa75cd3aa3bb5ad285015590517f405787fa12a823e0f2b7631cc41b3ba8828b3321ca811111fa75cd3aa3bb5ad39093018054925195519851151563010000000263ff0000001999151562010000029990991663ffff00001996151590920261ff00199415159490941661ffff199093169290921792909217939093161794909417905551909350879084907f87d488fb4bdf418b8e1ab59c465718c2de65b4ae7d41e7f8dc1ca270b86ba6989061122b908a908a908a909283526020830191909152604082015260600190565b60405180910390a450949350505050565b60025f540361125e57604051633ee5aeb560e01b815260040160405180910390fd5b60025f55565b5f60208284031215611274575f80fd5b5035919050565b60018060a01b03851681525f602085818401526080604084015284518060808501525f5b818110156112bb5786810183015185820160a00152820161129f565b505f60a0828601015260a0601f19601f83011685010192505050821515606083015295945050505050565b634e487b7160e01b5f52604160045260245ffd5b5f6020828403121561130a575f80fd5b813567ffffffffffffffff80821115611321575f80fd5b818401915084601f830112611334575f80fd5b813581811115611346576113466112e6565b604051601f8201601f19908116603f0116810190838211818310171561136e5761136e6112e6565b81604052828152876020848701011115611386575f80fd5b826020860160208301375f928101602001929092525095945050505050565b5f805f80608085870312156113b8575f80fd5b5050823594602084013594506040840135936060013592509050565b5f602082840312156113e4575f80fd5b81356001600160a01b03811681146113fa575f80fd5b9392505050565b6020808252600f908201526e125b9d985b1a59081bd999995c9259608a1b604082015260600190565b634e487b7160e01b5f52603260045260245ffd5b634e487b7160e01b5f52601160045260245ffd5b808201808211156114655761146561143e565b92915050565b600181811c9082168061147f57607f821691505b60208210810361149d57634e487b7160e01b5f52602260045260245ffd5b50919050565b601f8211156114ec575f81815260208120601f850160051c810160208610156114c95750805b601f850160051c820191505b818110156114e8578281556001016114d5565b5050505b505050565b815167ffffffffffffffff81111561150b5761150b6112e6565b61151f81611519845461146b565b846114a3565b602080601f831160018114611552575f841561153b5750858301515b5f19600386901b1c1916600185901b1785556114e8565b5f85815260208120601f198616915b8281101561158057888601518255948401946001909101908401611561565b508582101561159d57878501515f19600388901b60f8161c191681555b5050505050600190811b01905550565b818103818111156114655761146561143e56fea26469706673582212208c3d0f8a258bd334838e19c8a360a0b4c7c0e26ef9d518379caecef3e36169d664736f6c63430008140033",
  "linkReferences": {},
  "deployedLinkReferences": {},
  "immutableReferences": {},
  "inputSourceName": "project/contracts/InsuranceContract.sol",
  "buildInfoId": "solc-0_8_20-b4fd06f46273aabecb2fde11aa986df178f30fb2"
}